{
  "address": "0xf5c9b2c8747Bfc7f71bD911d5a134585fa69FFEf",
  "abi": [
    {
      "inputs": [],
      "stateMutability": "nonpayable",
      "type": "constructor"
    },
    {
      "anonymous": false,
      "inputs": [
        {
          "indexed": false,
          "internalType": "uint256",
          "name": "id",
          "type": "uint256"
        },
        {
          "indexed": false,
          "internalType": "string",
          "name": "url",
          "type": "string"
        }
      ],
      "name": "SiteAdded",
      "type": "event"
    },
    {
      "anonymous": false,
      "inputs": [
        {
          "indexed": false,
          "internalType": "uint256",
          "name": "siteId",
          "type": "uint256"
        },
        {
          "indexed": false,
          "internalType": "string",
          "name": "url",
          "type": "string"
        }
      ],
      "name": "SiteSpinned",
      "type": "event"
    },
    {
      "inputs": [],
      "name": "SPIN_COOLDOWN",
      "outputs": [
        {
          "internalType": "uint256",
          "name": "",
          "type": "uint256"
        }
      ],
      "stateMutability": "view",
      "type": "function"
    },
    {
      "inputs": [
        {
          "internalType": "string",
          "name": "_url",
          "type": "string"
        }
      ],
      "name": "addSite",
      "outputs": [],
      "stateMutability": "nonpayable",
      "type": "function"
    },
    {
      "inputs": [
        {
          "internalType": "uint256",
          "name": "_id",
          "type": "uint256"
        }
      ],
      "name": "getSite",
      "outputs": [
        {
          "internalType": "string",
          "name": "",
          "type": "string"
        }
      ],
      "stateMutability": "view",
      "type": "function"
    },
    {
      "inputs": [],
      "name": "getSitesCount",
      "outputs": [
        {
          "internalType": "uint256",
          "name": "",
          "type": "uint256"
        }
      ],
      "stateMutability": "view",
      "type": "function"
    },
    {
      "inputs": [
        {
          "internalType": "address",
          "name": "_user",
          "type": "address"
        }
      ],
      "name": "getTimeUntilNextSpin",
      "outputs": [
        {
          "internalType": "uint256",
          "name": "",
          "type": "uint256"
        }
      ],
      "stateMutability": "view",
      "type": "function"
    },
    {
      "inputs": [
        {
          "internalType": "address",
          "name": "_user",
          "type": "address"
        }
      ],
      "name": "getUserSpins",
      "outputs": [
        {
          "internalType": "uint256[]",
          "name": "",
          "type": "uint256[]"
        }
      ],
      "stateMutability": "view",
      "type": "function"
    },
    {
      "inputs": [
        {
          "internalType": "address",
          "name": "",
          "type": "address"
        },
        {
          "internalType": "uint256",
          "name": "",
          "type": "uint256"
        }
      ],
      "name": "hasSpun",
      "outputs": [
        {
          "internalType": "bool",
          "name": "",
          "type": "bool"
        }
      ],
      "stateMutability": "view",
      "type": "function"
    },
    {
      "inputs": [
        {
          "internalType": "address",
          "name": "_user",
          "type": "address"
        },
        {
          "internalType": "uint256",
          "name": "_siteId",
          "type": "uint256"
        }
      ],
      "name": "hasUserSpunSite",
      "outputs": [
        {
          "internalType": "bool",
          "name": "",
          "type": "bool"
        }
      ],
      "stateMutability": "view",
      "type": "function"
    },
    {
      "inputs": [
        {
          "internalType": "address",
          "name": "",
          "type": "address"
        }
      ],
      "name": "lastSpinTime",
      "outputs": [
        {
          "internalType": "uint256",
          "name": "",
          "type": "uint256"
        }
      ],
      "stateMutability": "view",
      "type": "function"
    },
    {
      "inputs": [
        {
          "internalType": "uint256",
          "name": "",
          "type": "uint256"
        }
      ],
      "name": "sites",
      "outputs": [
        {
          "internalType": "uint256",
          "name": "id",
          "type": "uint256"
        },
        {
          "internalType": "string",
          "name": "url",
          "type": "string"
        },
        {
          "internalType": "bool",
          "name": "isActive",
          "type": "bool"
        }
      ],
      "stateMutability": "view",
      "type": "function"
    },
    {
      "inputs": [],
      "name": "spin",
      "outputs": [
        {
          "internalType": "uint256",
          "name": "",
          "type": "uint256"
        }
      ],
      "stateMutability": "nonpayable",
      "type": "function"
    },
    {
      "inputs": [
        {
          "internalType": "string",
          "name": "",
          "type": "string"
        }
      ],
      "name": "urlExists",
      "outputs": [
        {
          "internalType": "bool",
          "name": "",
          "type": "bool"
        }
      ],
      "stateMutability": "view",
      "type": "function"
    },
    {
      "inputs": [
        {
          "internalType": "address",
          "name": "",
          "type": "address"
        },
        {
          "internalType": "uint256",
          "name": "",
          "type": "uint256"
        }
      ],
      "name": "userSpins",
      "outputs": [
        {
          "internalType": "uint256",
          "name": "",
          "type": "uint256"
        }
      ],
      "stateMutability": "view",
      "type": "function"
    }
  ],
  "transactionHash": "0xebf8d448d3fed394f5c38c910bcb5dace64bd757bd209fa2a9768d5dd1dcf425",
  "args": [],
  "numDeployments": 1,
  "solcInputHash": "ceafe4c2f7c2490da5dcd2c47c60c5ea",
  "bytecode": "0x608060405234801561001057600080fd5b5060408051808201909152601481527f68747470733a2f2f657468657265756d2e6f7267000000000000000000000000602082015261004e9061016c565b60408051808201909152601281527168747470733a2f2f6769746875622e636f6d60701b60208201526100809061016c565b60408051808201909152601981527f68747470733a2f2f737461636b6f766572666c6f772e636f6d0000000000000060208201526100bd9061016c565b60408051808201909152601081526f68747470733a2f2f666c6f772e636f6d60801b60208201526100ed9061016c565b60408051808201909152601781527f68747470733a2f2f73636166666f6c642d6574682e696f000000000000000000602082015261012a9061016c565b60408051808201909152601581527f68747470733a2f2f657468676c6f62616c2e636f6d000000000000000000000060208201526101679061016c565b610512565b60008151116101c25760405162461bcd60e51b815260206004820152601360248201527f55524c2063616e6e6f7420626520656d7074790000000000000000000000000060448201526064015b60405180910390fd5b6001816040516101d2919061035c565b9081526040519081900360200190205460ff16156102275760405162461bcd60e51b815260206004820152601260248201527155524c20616c72656164792065786973747360701b60448201526064016101b9565b600080546040805160608101825282815260208101858152600192820183905291830184559280528251600383027f290decd9548b62a8d60345a988386fc84ba6bc95484008f6362f93160ef3e5638101918255915192939290917f290decd9548b62a8d60345a988386fc84ba6bc95484008f6362f93160ef3e56401906102af9082610419565b50604091820151600291909101805460ff19169115159190911790555160019081906102dc90859061035c565b908152604051908190036020018120805492151560ff19909316929092179091557f20a0169fbfc56260946882aeb2952fe9e0ac9892360de018c3186180200b2daa9061032c90839085906104d8565b60405180910390a15050565b60005b8381101561035357818101518382015260200161033b565b50506000910152565b6000825161036e818460208701610338565b9190910192915050565b634e487b7160e01b600052604160045260246000fd5b600181811c908216806103a257607f821691505b6020821081036103c257634e487b7160e01b600052602260045260246000fd5b50919050565b601f821115610414576000816000526020600020601f850160051c810160208610156103f15750805b601f850160051c820191505b81811015610410578281556001016103fd565b5050505b505050565b81516001600160401b0381111561043257610432610378565b61044681610440845461038e565b846103c8565b602080601f83116001811461047b57600084156104635750858301515b600019600386901b1c1916600185901b178555610410565b600085815260208120601f198616915b828110156104aa5788860151825594840194600190910190840161048b565b50858210156104c85787850151600019600388901b60f8161c191681555b5050505050600190811b01905550565b82815260406020820152600082518060408401526104fd816060850160208701610338565b601f01601f1916919091016060019392505050565b610eee806105216000396000f3fe608060405234801561001057600080fd5b50600436106100cf5760003560e01c8063638b709a1161008c578063d53cab6611610066578063d53cab66146101d2578063f0acd7d5146101e5578063f1d15c82146101ed578063fee578e41461020d57600080fd5b8063638b709a1461018857806378c86e95146101a857806386f3561c146101b057600080fd5b806307075c6d146100d4578063089f8dab14610117578063144123151461012c5780634eb7d8571461014d5780635a38bc741461016d5780635a443bee14610180575b600080fd5b6101026100e2366004610a0e565b805160208183018101805160018252928201919093012091525460ff1681565b60405190151581526020015b60405180910390f35b61012a610125366004610a0e565b61023b565b005b61013f61013a366004610adb565b6103fd565b60405190815260200161010e565b61016061015b366004610af6565b610447565b60405161010e9190610b5f565b61010261017b366004610b72565b610545565b60005461013f565b61019b610196366004610adb565b610573565b60405161010e9190610b9c565b61013f600a81565b6101c36101be366004610af6565b6105de565b60405161010e93929190610be0565b61013f6101e0366004610b72565b61069f565b61013f6106d0565b61013f6101fb366004610adb565b60026020526000908152604090205481565b61010261021b366004610b72565b600460209081526000928352604080842090915290825290205460ff1681565b60008151116102875760405162461bcd60e51b815260206004820152601360248201527255524c2063616e6e6f7420626520656d70747960681b60448201526064015b60405180910390fd5b6001816040516102979190610c0b565b9081526040519081900360200190205460ff16156102ec5760405162461bcd60e51b815260206004820152601260248201527155524c20616c72656164792065786973747360701b604482015260640161027e565b600080546040805160608101825282815260208101858152600192820183905291830184559280528251600383027f290decd9548b62a8d60345a988386fc84ba6bc95484008f6362f93160ef3e5638101918255915192939290917f290decd9548b62a8d60345a988386fc84ba6bc95484008f6362f93160ef3e56401906103749082610cb2565b50604091820151600291909101805460ff19169115159190911790555160019081906103a1908590610c0b565b908152604051908190036020018120805492151560ff19909316929092179091557f20a0169fbfc56260946882aeb2952fe9e0ac9892360de018c3186180200b2daa906103f19083908590610d72565b60405180910390a15050565b6001600160a01b038116600090815260026020526040812054819061042490600a90610da9565b90508042106104365750600092915050565b6104404282610dbc565b9392505050565b60005460609082106104915760405162461bcd60e51b815260206004820152601360248201527214da5d1948191bd95cc81b9bdd08195e1a5cdd606a1b604482015260640161027e565b600082815481106104a4576104a4610dcf565b906000526020600020906003020160010180546104c090610c27565b80601f01602080910402602001604051908101604052809291908181526020018280546104ec90610c27565b80156105395780601f1061050e57610100808354040283529160200191610539565b820191906000526020600020905b81548152906001019060200180831161051c57829003601f168201915b50505050509050919050565b6001600160a01b038216600090815260046020908152604080832084845290915290205460ff165b92915050565b6001600160a01b03811660009081526003602090815260409182902080548351818402810184019094528084526060939283018282801561053957602002820191906000526020600020905b8154815260200190600101908083116105bf5750505050509050919050565b600081815481106105ee57600080fd5b6000918252602090912060039091020180546001820180549193509061061390610c27565b80601f016020809104026020016040519081016040528092919081815260200182805461063f90610c27565b801561068c5780601f106106615761010080835404028352916020019161068c565b820191906000526020600020905b81548152906001019060200180831161066f57829003601f168201915b5050506002909301549192505060ff1683565b600360205281600052604060002081815481106106bb57600080fd5b90600052602060002001600091509150505481565b600080546107155760405162461bcd60e51b81526020600482015260126024820152714e6f20736974657320617661696c61626c6560701b604482015260640161027e565b3360009081526002602052604090205461073190600a90610da9565b4210156107805760405162461bcd60e51b815260206004820152601c60248201527f436f6f6c646f776e20706572696f64206e6f742066696e697368656400000000604482015260640161027e565b6000805467ffffffffffffffff81111561079c5761079c6109f8565b6040519080825280602002602001820160405280156107c5578160200160208202803683370190505b5090506000805b60005481101561086057600081815481106107e9576107e9610dcf565b600091825260209091206002600390920201015460ff168015610827575033600090815260046020908152604080832084845290915290205460ff16155b15610858578083838151811061083f5761083f610dcf565b60209081029190910101528161085481610de5565b9250505b6001016107cc565b50600081116108bd5760405162461bcd60e51b8152602060048201526024808201527f4e6f206e657720736974657320617661696c61626c6520666f722074686973206044820152633ab9b2b960e11b606482015260840161027e565b6000805460405183916109019142914491339190602001938452602084019290925260601b6bffffffffffffffffffffffff19166040830152605482015260740190565b6040516020818303038152906040528051906020012060001c6109249190610dfe565b9050600083828151811061093a5761093a610dcf565b602090810291909101810151336000818152600284526040808220429055600385528082208054600181810183559184528684200185905592825260048552808220848352909452928320805460ff1916909117905581549092507f57a2210cd88ece1fb0bf7ea7cf3edf95c6d0f7e7dd98d0b67750dbff704fdb27918391829081106109c9576109c9610dcf565b90600052602060002090600302016001016040516109e8929190610e20565b60405180910390a1949350505050565b634e487b7160e01b600052604160045260246000fd5b600060208284031215610a2057600080fd5b813567ffffffffffffffff80821115610a3857600080fd5b818401915084601f830112610a4c57600080fd5b813581811115610a5e57610a5e6109f8565b604051601f8201601f19908116603f01168101908382118183101715610a8657610a866109f8565b81604052828152876020848701011115610a9f57600080fd5b826020860160208301376000928101602001929092525095945050505050565b80356001600160a01b0381168114610ad657600080fd5b919050565b600060208284031215610aed57600080fd5b61044082610abf565b600060208284031215610b0857600080fd5b5035919050565b60005b83811015610b2a578181015183820152602001610b12565b50506000910152565b60008151808452610b4b816020860160208601610b0f565b601f01601f19169290920160200192915050565b6020815260006104406020830184610b33565b60008060408385031215610b8557600080fd5b610b8e83610abf565b946020939093013593505050565b6020808252825182820181905260009190848201906040850190845b81811015610bd457835183529284019291840191600101610bb8565b50909695505050505050565b838152606060208201526000610bf96060830185610b33565b90508215156040830152949350505050565b60008251610c1d818460208701610b0f565b9190910192915050565b600181811c90821680610c3b57607f821691505b602082108103610c5b57634e487b7160e01b600052602260045260246000fd5b50919050565b601f821115610cad576000816000526020600020601f850160051c81016020861015610c8a5750805b601f850160051c820191505b81811015610ca957828155600101610c96565b5050505b505050565b815167ffffffffffffffff811115610ccc57610ccc6109f8565b610ce081610cda8454610c27565b84610c61565b602080601f831160018114610d155760008415610cfd5750858301515b600019600386901b1c1916600185901b178555610ca9565b600085815260208120601f198616915b82811015610d4457888601518255948401946001909101908401610d25565b5085821015610d625787850151600019600388901b60f8161c191681555b5050505050600190811b01905550565b828152604060208201526000610d8b6040830184610b33565b949350505050565b634e487b7160e01b600052601160045260246000fd5b8082018082111561056d5761056d610d93565b8181038181111561056d5761056d610d93565b634e487b7160e01b600052603260045260246000fd5b600060018201610df757610df7610d93565b5060010190565b600082610e1b57634e487b7160e01b600052601260045260246000fd5b500690565b828152600060206040602084015260008454610e3b81610c27565b8060408701526060600180841660008114610e5d5760018114610e7957610ea9565b60ff19851660608a0152606084151560051b8a01019550610ea9565b89600052602060002060005b85811015610ea05781548b8201860152908301908801610e85565b8a016060019650505b5093999850505050505050505056fea2646970667358221220f77cf5b17c6aa21e8d5bcb3ef5e8f2537fd41e11c3d79ce3a79f9d039848f45264736f6c63430008190033",
  "devdoc": {
    "kind": "dev",
    "methods": {},
    "version": 1
  },
  "userdoc": {
    "kind": "user",
    "methods": {},
    "version": 1
  },
  "storageLayout": {
    "storage": [
      {
        "astId": 12,
        "contract": "contracts/Roulette.sol:Roulette",
        "label": "sites",
        "offset": 0,
        "slot": "0",
        "type": "t_array(t_struct(Site)8_storage)dyn_storage"
      },
      {
        "astId": 16,
        "contract": "contracts/Roulette.sol:Roulette",
        "label": "urlExists",
        "offset": 0,
        "slot": "1",
        "type": "t_mapping(t_string_memory_ptr,t_bool)"
      },
      {
        "astId": 20,
        "contract": "contracts/Roulette.sol:Roulette",
        "label": "lastSpinTime",
        "offset": 0,
        "slot": "2",
        "type": "t_mapping(t_address,t_uint256)"
      },
      {
        "astId": 25,
        "contract": "contracts/Roulette.sol:Roulette",
        "label": "userSpins",
        "offset": 0,
        "slot": "3",
        "type": "t_mapping(t_address,t_array(t_uint256)dyn_storage)"
      },
      {
        "astId": 31,
        "contract": "contracts/Roulette.sol:Roulette",
        "label": "hasSpun",
        "offset": 0,
        "slot": "4",
        "type": "t_mapping(t_address,t_mapping(t_uint256,t_bool))"
      }
    ],
    "types": {
      "t_address": {
        "encoding": "inplace",
        "label": "address",
        "numberOfBytes": "20"
      },
      "t_array(t_struct(Site)8_storage)dyn_storage": {
        "base": "t_struct(Site)8_storage",
        "encoding": "dynamic_array",
        "label": "struct Roulette.Site[]",
        "numberOfBytes": "32"
      },
      "t_array(t_uint256)dyn_storage": {
        "base": "t_uint256",
        "encoding": "dynamic_array",
        "label": "uint256[]",
        "numberOfBytes": "32"
      },
      "t_bool": {
        "encoding": "inplace",
        "label": "bool",
        "numberOfBytes": "1"
      },
      "t_mapping(t_address,t_array(t_uint256)dyn_storage)": {
        "encoding": "mapping",
        "key": "t_address",
        "label": "mapping(address => uint256[])",
        "numberOfBytes": "32",
        "value": "t_array(t_uint256)dyn_storage"
      },
      "t_mapping(t_address,t_mapping(t_uint256,t_bool))": {
        "encoding": "mapping",
        "key": "t_address",
        "label": "mapping(address => mapping(uint256 => bool))",
        "numberOfBytes": "32",
        "value": "t_mapping(t_uint256,t_bool)"
      },
      "t_mapping(t_address,t_uint256)": {
        "encoding": "mapping",
        "key": "t_address",
        "label": "mapping(address => uint256)",
        "numberOfBytes": "32",
        "value": "t_uint256"
      },
      "t_mapping(t_string_memory_ptr,t_bool)": {
        "encoding": "mapping",
        "key": "t_string_memory_ptr",
        "label": "mapping(string => bool)",
        "numberOfBytes": "32",
        "value": "t_bool"
      },
      "t_mapping(t_uint256,t_bool)": {
        "encoding": "mapping",
        "key": "t_uint256",
        "label": "mapping(uint256 => bool)",
        "numberOfBytes": "32",
        "value": "t_bool"
      },
      "t_string_memory_ptr": {
        "encoding": "bytes",
        "label": "string",
        "numberOfBytes": "32"
      },
      "t_string_storage": {
        "encoding": "bytes",
        "label": "string",
        "numberOfBytes": "32"
      },
      "t_struct(Site)8_storage": {
        "encoding": "inplace",
        "label": "struct Roulette.Site",
        "members": [
          {
            "astId": 3,
            "contract": "contracts/Roulette.sol:Roulette",
            "label": "id",
            "offset": 0,
            "slot": "0",
            "type": "t_uint256"
          },
          {
            "astId": 5,
            "contract": "contracts/Roulette.sol:Roulette",
            "label": "url",
            "offset": 0,
            "slot": "1",
            "type": "t_string_storage"
          },
          {
            "astId": 7,
            "contract": "contracts/Roulette.sol:Roulette",
            "label": "isActive",
            "offset": 0,
            "slot": "2",
            "type": "t_bool"
          }
        ],
        "numberOfBytes": "96"
      },
      "t_uint256": {
        "encoding": "inplace",
        "label": "uint256",
        "numberOfBytes": "32"
      }
    }
  }
}